:020000040000FA
:1000000080022020D5000000D9000000DB000000A5
:1000100000000000000000000000000000000000E0
:10002000000000000000000000000000DD000000F3
:100030000000000000000000DF000000E100000000
:10004000E3000000FD030000E3000000E300000007
:10005000E3000000E3000000E3000000E300000014
:1000600000000000E3000000E300000000000000CA
:1000700000000000E3000000E3000000E5070000CE
:10008000E3000000E3000000CD070000D9070000F6
:10009000E3000000E300000000000000000000009A
:1000A000E3000000E300000000000000000000008A
:1000B000E300000000000000E3000000E300000097
:1000C0000348854600F010F800480047F10700009B
:1000D0008002202003480047FEE7FEE7FEE7FEE738
:1000E000FEE7FEE7C10000001CB509480090094882
:1000F000019005460126009C05E0E36807CC3343E8
:100100000C3C98471034AC42F7D3FFF7DDFF0000FA
:100110006C0800007C080000811E091F00BFFCD293
:10012000704770B50A780C231A400124240305197E
:100130006E689E43B2186A604978072211400359DD
:1001400093435918015170BDF0B57A4A82183B4B60
:10015000C31808794E793A4D784C002E23D02028C8
:1001600004D00526F601002803D003E0354E002810
:1001700000D18826576F2F4037435767976F2F401E
:1001800037439767566B26405663966B26409663B7
:100190000026566596658F26F6435F6837405F6098
:1001A0009F6837409F608E79096820280BD000280F
:1001B00019D1491E5160D76E2F4088210F43D76651
:1001C0001746703719E0491E5160D16E29401D4F06
:1001D0003943D166116F294039431167012149071D
:1001E000194D174609E049085160D76E2F40052187
:1001F000C9010F43D766174670373C682C400C4343
:100200003C60D16A4D4C2140D162116B2140116399
:100210000021D16411658F21C943D46F0C40D4678C
:100220001C680C401C600643BD2030401168074B21
:100230000B40C018801C1060F0BDC0468418000040
:1002400024493E0001040000FFFFFFCF4000FFCF24
:10025000B0B54A68364BC250364A80180A78222A0E
:1002600058D8930001A4E3589F46C0460B030000F2
:10027000150300000B030000150300001503000028
:10028000150300001503000015030000150300000E
:1002900015030000150300001503000015030000FE
:1002A000150300001503000015030000F90200000B
:1002B00015030000F90200001503000015030000FB
:1002C00015030000150300001503000015030000CE
:1002D00015030000150300001503000015030000BE
:1002E000150300001503000015030000F9020000CB
:1002F00015030000F902000003231B0704689C4358
:1003000001235B07E318036004E003231B07046871
:100310009C4304600B69C360CB68074C1C40C36AF4
:10032000064D1D402B19C362097A11430160B0BD0F
:100330000818000004180000777702008888FDFF85
:1003400010B507239B04194092008018024A845874
:100350009C436118815010BD3018000010B5029CFC
:10036000A400001911431943014A815010BDC04631
:100370005018000092008018014A81507047C04612
:100380001018000010B50122120383180C789C602D
:100390004B7883508978014A815010BD0C110000C0
:1003A000B0B51122120283580124A34383500B8855
:1003B0008C781C438B882343094C1C408358094D7F
:1003C0001D40631983508B79CC791C43097A2143F2
:1003D0007E231940801842689A4351184160B0BD8D
:1003E00018670000E798FDFF10B50122120383187B
:1003F0000C789C604978815010BD0000F8B5002051
:10040000C5431048066830060F4C0BD5012739024A
:10041000204600F0E8F9002800D02F460B4801687C
:10042000C919016070060BD501267102204600F043
:10043000DAF9002800D02E460548016889190160C4
:10044000F8BDC04638100A4000200A4000002020B5
:100450000400202010B526498420086001221303DF
:100460002448036085234B6053030360224B5C1CCC
:100470000C61CC6052060C6914430C61CC681443C7
:10048000CC601E490B604B600B6813430B604B68DC
:1004900013434B6082220A65194A531C4B658A60DC
:1004A0004A618A61CA610A624A628A63CA638123B5
:1004B0008B64CB648B65CB654A638A620A664A6645
:1004C00001463039032212020A600260052040030F
:1004D0000C490A6802430A600B48016AC0221143B2
:1004E000016201681143016008480260026310BDA7
:1004F00088804240D0120A4083000C0004804240B1
:100500008100040090130A4028100A40A0320A40DB
:1005100080B511481149FFF704FE0320410210483D
:1005200002680A43026001210A0203681343036060
:100530000022426107224262836B9343836312026B
:10054000836B93438363826A042313438362826AC7
:100550000A43826280BDC04600200F401E08000092
:1005600000320F4080B511481149FFF7DAFD032032
:100570004102104802680A43026001210A0203682E
:10058000134303600022426107224262836B93435C
:1005900083631202836B93438363826A042313434E
:1005A0008362826A0A43826280BDC04600000F40B7
:1005B0002008000000120F407CB5194C1949204654
:1005C000FFF7E0FE18492046FFF7BEFD7D20C10180
:1005D000002520462A46FFF7CDFE009520462946F5
:1005E0002A462B46FFF7BAFE204629462A46FFF741
:1005F000A7FE0E49012620463246FFF7BBFE0096B5
:10060000204629462A462B46FFF7A8FE20462946C3
:100610003246FFF795FE06488660032101607CBDE7
:10062000004008402208000028080000C05D0000CB
:100630000051084008480021016008480168032271
:1006400091430160416830229143416041680F222B
:10065000914341607047C04608030B4000010B40C6
:1006600010B5084C08492046FFF78CFE0749204684
:10067000FFF7EEFD064801680122114301600548BD
:10068000026010BD002086403008000034080000E1
:10069000283086400831864010B5064C0649204671
:1006A000FFF770FE05492046FFF7D2FD04480121FF
:1006B000016010BD00008640480800004C080000A2
:1006C0000811864010B5124C12492046FFF78CFEE7
:1006D00011492046FFF764FE0320C1030F4802685A
:1006E0008A43026001690E4A0A401132026141697F
:1006F00017220A4328218A4342614168012211409E
:10070000436893435918416001681143016010BD6B
:100710000080104060080000620800000091104056
:100720000000FFFF80B500F01BF8FFF793FEFFF716
:1007300081FFFFF741FFFFF793FFFFF7ADFFFFF7E3
:10074000E7FEFFF70FFFFFF7BDFFB82002490022C9
:100750000A5402490A5480BDC40020200800202009
:10076000F8B510481049416010484160104B59607D
:10077000104C6160104D6960104E7160104F7960CF
:10078000104841601049074A1160084A1160196019
:10079000216029603160396001601020FFF7BCFCE6
:1007A000F8BDC04600080A40030000B100280A4016
:1007B00000480840002886400008864000280F4076
:1007C00000080F4000881040010000260148006822
:1007D0007047C04620108640014800687047C046F8
:1007E0002030864070472722D20180580840704749
:1007F000FFF798FFFEE7000002E008C8121F08C1DB
:10080000002AFAD170470000704700000000000085
:10081000002001E001C1121F002AFBD1704708002F
:100820000800080000000000007D0000000001003A
:100830000800FF0002000000D330000000000000AC
:1008400000000000000000000800000000000000A0
:100850000000000000000000000000000000000098
:100860000800000018000000003000007C080000B4
:0C087000000020208002000010080000A2
:04000005000000C136
:00000001FF
